{"abi":[{"type":"function","name":"JWT_VALIDATOR_ID","inputs":[],"outputs":[{"name":"","type":"bytes32","internalType":"bytes32"}],"stateMutability":"view"}],"bytecode":{"object":"0x60a66037600b82828239805160001a607314602a57634e487b7160e01b600052600060045260246000fd5b30600052607381538281f3fe730000000000000000000000000000000000000000301460806040526004361060335760003560e01c80630b4c029d146038575b600080fd5b605e7f99c5d5072a2409103e7300ff9df408646ca33d3f911ca1c3fb38dd1cbedbdf0881565b60405190815260200160405180910390f3fea2646970667358221220972b5069bd4f139d8053c00e828f88782a4c40d997ffd9e76abef2f55f74171964736f6c634300081a0033","linkReferences":{}},"methodIdentifiers":{"JWT_VALIDATOR_ID()":"0b4c029d"},"id":1}