{"abi":[{"type":"constructor","inputs":[{"name":"_verifier","type":"address","internalType":"contract IRiscZeroVerifier"}],"stateMutability":"nonpayable"},{"type":"function","name":"balanceOf","inputs":[{"name":"claimId","type":"bytes32","internalType":"bytes32"}],"outputs":[{"name":"","type":"uint256","internalType":"uint256"}],"stateMutability":"view"},{"type":"function","name":"claim","inputs":[{"name":"to","type":"address","internalType":"address payable"},{"name":"claimId","type":"bytes32","internalType":"bytes32"},{"name":"postStateDigest","type":"bytes32","internalType":"bytes32"},{"name":"seal","type":"bytes","internalType":"bytes"}],"outputs":[],"stateMutability":"nonpayable"},{"type":"function","name":"deposit","inputs":[{"name":"claimId","type":"bytes32","internalType":"bytes32"}],"outputs":[],"stateMutability":"payable"},{"type":"function","name":"imageId","inputs":[],"outputs":[{"name":"","type":"bytes32","internalType":"bytes32"}],"stateMutability":"view"},{"type":"function","name":"verifier","inputs":[],"outputs":[{"name":"","type":"address","internalType":"contract IRiscZeroVerifier"}],"stateMutability":"view"},{"type":"event","name":"Claimed","inputs":[{"name":"recipient","type":"address","indexed":true,"internalType":"address"},{"name":"claimId","type":"bytes32","indexed":true,"internalType":"bytes32"},{"name":"amount","type":"uint256","indexed":false,"internalType":"uint256"}],"anonymous":false},{"type":"event","name":"Deposited","inputs":[{"name":"claimId","type":"bytes32","indexed":true,"internalType":"bytes32"},{"name":"amount","type":"uint256","indexed":false,"internalType":"uint256"}],"anonymous":false},{"type":"error","name":"InvalidClaim","inputs":[{"name":"message","type":"string","internalType":"string"}]},{"type":"error","name":"InvalidDeposit","inputs":[{"name":"message","type":"string","internalType":"string"}]},{"type":"error","name":"TransferFailed","inputs":[]}],"bytecode":{"object":"0x60a0604052348015600f57600080fd5b506040516109d13803806109d1833981016040819052602c91603c565b6001600160a01b0316608052606a565b600060208284031215604d57600080fd5b81516001600160a01b0381168114606357600080fd5b9392505050565b60805161094661008b600039600081816061015261035801526109466000f3fe60806040526004361061004a5760003560e01c80632b7ac3f31461004f5780636c7f1542146100a0578063b214faa5146100ce578063ef3f7dd5146100e3578063f7a0582a14610117575b600080fd5b34801561005b57600080fd5b506100837f000000000000000000000000000000000000000000000000000000000000000081565b6040516001600160a01b0390911681526020015b60405180910390f35b3480156100ac57600080fd5b506100c06100bb36600461070d565b610137565b604051908152602001610097565b6100e16100dc36600461070d565b61017e565b005b3480156100ef57600080fd5b506100c07f99c5d5072a2409103e7300ff9df408646ca33d3f911ca1c3fb38dd1cbedbdf0881565b34801561012357600080fd5b506100e1610132366004610726565b6102e1565b60008161016057604051630d99118360e11b8152600401610157906107ca565b60405180910390fd5b6000828152600160205260409020610177816105f1565b9392505050565b8061019c57604051633e6dd2d160e21b8152600401610157906107ca565b346000036101e357604051633e6dd2d160e21b815260206004820152601360248201527216995c9bc819195c1bdcda5d08185b5bdd5b9d606a1b6044820152606401610157565b604080516060810182526000808252602082018490523492820192909252815460018082018455928052815160039091027f290decd9548b62a8d60345a988386fc84ba6bc95484008f6362f93160ef3e56301805492939092839160ff19909116908381811115610256576102566107f1565b021790555060208201518160010155604082015181600201555050600160008281526020019081526020016000206001600080549050610296919061081d565b81546001810183556000928352602092839020015560405134815282917fcd2fe07293de5928c5df9505b65a8d6506f8668dfe81af09090920687edc48a9910160405180910390a250565b6001600160a01b03851661033857604051630d99118360e11b815260206004820152601960248201527f496e76616c696420726563697069656e742061646472657373000000000000006044820152606401610157565b8361035657604051630d99118360e11b8152600401610157906107ca565b7f00000000000000000000000000000000000000000000000000000000000000006001600160a01b0316636efef00983837f99c5d5072a2409103e7300ff9df408646ca33d3f911ca1c3fb38dd1cbedbdf0860001b8760028b8b6040516020016103d59291906001600160a01b03929092168252602082015260400190565b60408051601f19818403018152908290526103ef91610836565b602060405180830381855afa15801561040c573d6000803e3d6000fd5b5050506040513d601f19601f8201168201806040525081019061042f9190610865565b6040518663ffffffff1660e01b815260040161044f95949392919061087e565b602060405180830381865afa15801561046c573d6000803e3d6000fd5b505050506040513d601f19601f8201168201806040525081019061049091906108c5565b6104cd57604051630d99118360e11b815260206004820152600d60248201526c24b73b30b634b210383937b7b360991b6044820152606401610157565b6000848152600160205260408120906104e58261067d565b90508060000361052f57604051630d99118360e11b81526020600482015260146024820152734e6f20636c61696d61626c652062616c616e636560601b6044820152606401610157565b6000876001600160a01b03168260405160006040518083038185875af1925050503d806000811461057c576040519150601f19603f3d011682016040523d82523d6000602084013e610581565b606091505b50509050806105a3576040516312171d8360e31b815260040160405180910390fd5b86886001600160a01b03167f9b01158d4bc10c112ba32b5240cda97e49e2eb86021f03f6a0f460342ac4dfda846040516105df91815260200190565b60405180910390a35050505050505050565b600080805b835481101561067657600080858381548110610614576106146108e7565b90600052602060002001548154811061062f5761062f6108e7565b6000918252602082206003909102019150815460ff166001811115610656576106566107f1565b0361066d57600281015461066a90846108fd565b92505b506001016105f6565b5092915050565b600080805b8354811015610676576000808583815481106106a0576106a06108e7565b9060005260206000200154815481106106bb576106bb6108e7565b6000918252602082206003909102019150815460ff1660018111156106e2576106e26107f1565b0361070457805460ff19166001178155600281015461070190846108fd565b92505b50600101610682565b60006020828403121561071f57600080fd5b5035919050565b60008060008060006080868803121561073e57600080fd5b85356001600160a01b038116811461075557600080fd5b94506020860135935060408601359250606086013567ffffffffffffffff81111561077f57600080fd5b8601601f8101881361079057600080fd5b803567ffffffffffffffff8111156107a757600080fd5b8860208284010111156107b957600080fd5b959894975092955050506020019190565b6020808252600d908201526c115b5c1d1e4818db185a5b5259609a1b604082015260600190565b634e487b7160e01b600052602160045260246000fd5b634e487b7160e01b600052601160045260246000fd5b8181038181111561083057610830610807565b92915050565b6000825160005b81811015610857576020818601810151858301520161083d565b506000920191825250919050565b60006020828403121561087757600080fd5b5051919050565b60808152846080820152848660a0830137600060a08683010152600060a0601f19601f88011683010190508460208301528360408301528260608301529695505050505050565b6000602082840312156108d757600080fd5b8151801515811461017757600080fd5b634e487b7160e01b600052603260045260246000fd5b808201808211156108305761083061080756fea26469706673582212200ad756caf42dba46da5c5613f3b2ba829beb1854009a1b5410e354576f4bba1764736f6c634300081a0033","linkReferences":{}},"methodIdentifiers":{"balanceOf(bytes32)":"6c7f1542","claim(address,bytes32,bytes32,bytes)":"f7a0582a","deposit(bytes32)":"b214faa5","imageId()":"ef3f7dd5","verifier()":"2b7ac3f3"},"id":0}